:020000040800F2
:10000000200700202D050008010300080303000855
:10001000070300080B0300080F030008000000009E
:1000200000000000000000000000000013030008B2
:10003000150300080000000017030008190300085A
:100040004705000847050008470500084705000860
:100050004705000847050008470500084705000850
:100060004705000847050008470500084705000840
:100070004705000847050008470500084705000830
:100080004705000847050008470500084705000820
:100090004705000847050008470500084705000810
:1000A0004705000847050008470500084705000800
:1000B00047050008470500084705000847050008F0
:1000C00047050008470500084705000847050008E0
:1000D00047050008411500084705000847050008C6
:1000E00047050008470500084705000847050008C0
:1000F00047050008470500084705000847050008B0
:10010000470500084705000847050008470500089F
:10011000470500084705000847050008470500088F
:10012000470500084705000847050008470500087F
:10013000470500084705000847050008470500086F
:10014000470500084705000847050008470500085F
:10015000470500084705000847050008470500084F
:10016000470500084705000847050008470500083F
:10017000470500084705000847050008470500082F
:100180004705000847050008DFF80CD004F0A4FB81
:1001900000480047DF0100082007002051480068A0
:1001A00040F008004F49086080204F490880002037
:1001B000091D08804C4924310860401E4A492C31F1
:1001C00008605320091F0880012047491431088026
:1001D0004548008840F001004349088070472DEDF4
:1001E000068B88B0002400254FF4C06000F0B0F901
:1001F000A82001F0BFF84FF4E13001F04BF94FF4C3
:10020000FA7001F019F903F025FE322001F014F91B
:10021000FFF7C4FF01F0FEFB02F097FD32482430E7
:100220000068054604465CE005A802F09AFC2E48EA
:1002300024300468AC422BD2C5F1FF302044B0F525
:10024000FA6F4ED99DED070A10EE101A084604F019
:100250009DF941EC180B9DED060A10EE101A0846A8
:1002600004F094F941EC190B9DED050A10EE101AFB
:10027000084604F08BF941EC1A0B8DED028B8DEDE5
:10028000009B53EC1A2B19A004F086FB254628E0AE
:10029000601BB0F5FA6F24D99DED070A10EE101A15
:1002A000084604F073F941EC180B9DED060A10EEB8
:1002B000101A084604F06AF941EC190B9DED050A85
:1002C00010EE101A084604F061F941EC1A0B8DED9E
:1002D000028B8DED009B53EC1A2B04A004F05CFB09
:1002E0002546A1E740380240000C00407970723A80
:1002F000252E32662C252E32662C252E32660A00DB
:10030000704700BFFEE700BFFEE700BFFEE700BF8B
:10031000FEE7704770477047704700000CB500203B
:10032000019000907648006840F48030744908607D
:1003300000BF7348006800F4003000900198401C32
:100340000190009818B90198B0F5A04FF1D16C4810
:10035000006800F4003010B10120009001E000209E
:1003600000900098012846D165484030006840F070
:1003700080506349403108606248006840F4404062
:10038000604908605E48083000685D4908310860CF
:100390000846006840F4004008600846006840F4E1
:1003A000A05008605848091F0860081F006840F006
:1003B0008070091F086000BF5148006800F000709D
:1003C0000028F9D040F20570504908604C480830C8
:1003D000006820F003004A490831086008460068B8
:1003E00040F00200086000BF45480830006800F097
:1003F0000C000828F8D10CBD10B54548006840F441
:100400007000434908603E48006840F001003C49E4
:10041000086000203A4908310860394800683D49C1
:100420000840374908603C48091D0860081F0068FB
:1004300020F48020091F0860002031490C31086039
:10044000FFF76CFF4FF0006031498039086010BD44
:1004500070B500200022022300240221284D083517
:100460002D6805F00C0020B1042806D0082834D1EE
:1004700007E02A4D2A4E356033E02A4D284E35607C
:100480002FE01F4D2D1D2D68C5F380541C4D2D1DD3
:100490002D6805F03F0154B1224DB5FBF1F5184E22
:1004A000361D3668C6F3881605FB06F209E01B4DBB
:1004B000B5FBF1F5124E361D3668C6F3881605FBFE
:1004C00006F20F4D2D1D2D68C5F301456D1C6B0007
:1004D000B2FBF3F5124E356003E0104D104E35605F
:1004E00000BF00BF064D08352D68C5F303150E4E3D
:1004F000705D0B4D2D68C540094E356070BD000024
:10050000003802400070004008544007003C0240A0
:1005100088ED00E0FFFFF6FE103000240024F40018
:100520000000002000127A000400002006488047E6
:1005300006480047FEE7FEE7FEE7FEE7FEE7FEE7C8
:10054000FEE7FEE7FEE7FEE7F90300088901000881
:1005500032490143324A1160704770B500210023CF
:100560000F22C4781CB32E4C246804F4E064C4F554
:10057000E064C4F30721C1F10404E3B20A41447802
:100580009C40E1B28478144021430C07210E254C95
:1005900005786155047804F01F050124AC40057806
:1005A0006D11AD0005F1E025C5F8004109E00478C2
:1005B00004F01F050124AC401B4D0678761145F868
:1005C000264070BD194A0A400243154B1B1F1A6092
:1005D000704739B1124A121D12680243104B1B1D9D
:1005E0001A6006E00E4A121D126882430C4B1B1D56
:1005F0001A607047042808D14FF0E021096941F0E2
:1006000004014FF0E022116107E04FF0E021096999
:1006100021F004014FF0E022116170470000FA055B
:100620000CED00E000E400E080E100E080FFFF1F4F
:1006300010B504469848844208D10121084600F0CC
:1006400086FB0021012000F082FB76E09348844283
:1006500008D10121022000F07AFB0021022000F0E5
:1006600076FB6AE08E48844208D10121042000F024
:100670006EFB0021042000F06AFB5EE089488442A2
:1006800008D10121082000F062FB0021082000F0C1
:100690005EFB52E08448844208D10121102000F022
:1006A00056FB0021102000F052FB46E07F488442B8
:1006B00008D10121202000F04AFB0021202000F079
:1006C00046FB3AE07A48844208D10121402000F0FC
:1006D0003EFB0021402000F03AFB2EE075488442AA
:1006E00008D10121802000F032FB0021802000F0A1
:1006F0002EFB22E07048844208D10121801500F0D1
:1007000026FB0021A01500F022FB16E06B48844276
:1007100008D10121401500F01AFB0021601500F0FE
:1007200016FB0AE06648844207D10121001500F05B
:100730000EFB0021201500F00AFB10BDF0B50A46A3
:1007400000210023002400BF3DE0012505FA01F34C
:10075000156805EA03049C4234D105684F0003265E
:10076000BE40B543056015794E00B5400668354377
:1007700005601579012D02D01579022D16D18568F5
:100780004F000326BE40B543856055794E00B54005
:10079000866835438560456801268E40B5434560CF
:1007A000456896798E40B6B235434560C5684F00BE
:1007B0000326BE40B543C560D5794E00B540C66836
:1007C0003543C560491C1029BFD3F0BD4FF6FF71FA
:1007D00001600021017141718171C171704708B5DB
:1007E0004FF480320092009A0A430092009AC2614C
:1007F000C161009AC261C2690092C269009208BDDB
:100800000246002013690B400BB1012000E00020DC
:1008100070470146086980B270470246002053695C
:100820000B400BB1012000E00020704701464869F1
:1008300080B2704701837047418370470AB10183DA
:1008400000E0418370474161704742694A4042611C
:100850007047F0B5002300244D07ED0E02FA05F3B2
:10086000CE1000F1200555F826504E07F70E0F2642
:10087000BE40B543CF1000F1200646F82750CE10F9
:1008800000F1200555F8265045EA0304CE1000F18A
:10089000200545F82640F0BD00000240000402405B
:1008A00000080240000C0240001002400014024008
:1008B00000180240001C02400020024000240240B8
:1008C00000280240F948006840F00100F74908603C
:1008D0000020F64908310860F4480068F4490840EF
:1008E000F2490860F348091D0860F348EF49843174
:1008F0000860F0481038091D0860EC48006820F4D2
:100900008020EA4908600020E8490C310860E74986
:100910008C31086070470021E44A921C1170114626
:100920000870704710B501460022002300204A11CC
:10093000012A02D1DD4C236808E0022A03D1DB4CF6
:100940007034236802E0D94C7434236801F01F022C
:10095000012494401C400CB1012000E0002010BD97
:1009600038B5002000900024002500BF3120FFF79B
:10097000D9FF05460098401C00900098B0F5A04FA4
:1009800001D0002DF2D03120FFF7CCFF08B10124B7
:1009900000E00024204638BD01460020C34A10680C
:1009A00020F0F80040EAC10010607047C3490860B9
:1009B00070470021BD4A703211701170012802D0B9
:1009C00004280AD104E00121B84A7032117005E010
:1009D0000521B64A7032117000E000BF00BF7047B9
:1009E000B7490860704770B5049C41EA821501263A
:1009F000C6EB530645EA0645054345EA0465AB4E9A
:100A0000361D356070BDAD4908667047820142EA07
:100A10000172A64B84331A607047A84988667047F4
:100A200010B5830143EA016343EA02739F4C8834A3
:100A3000236010BDA14908677047A049C86470478A
:100A400002460020994B0833186820F0EC6042EA17
:100A500001031843954B0833186070470246002085
:100A6000924B0833186820F0784042EA010318439B
:100A70008E4B083318607047014600208B4A0832BD
:100A8000106820F003000843106070478748083062
:100A9000006800F00C00704701460020834A0832CD
:100AA000106820F0F00008431060704701460020F5
:100AB0007E4A0832106820F4E05008431060704706
:100AC00001460020794A0832106820F4604040EA6C
:100AD000C10010607047F0B50021002200240225FB
:100AE00000260223714F08373F6807F00C0121B13F
:100AF000042905D0082937D105E0724F076036E098
:100B0000714F076033E0694F3F1D3F68C7F3805660
:100B1000664F3F1D3F6807F03F036EB16A4FB7FB5A
:100B2000F3F7DFF888C10CF1040CDCF800C0CCF35B
:100B3000881C07FB0CF40CE0624FB7FBF3F7DFF8FF
:100B40006CC10CF1040CDCF800C0CCF3881C07FB72
:100B50000CF4564F3F1D3F68C7F301477F1C7D00D3
:100B6000B4FBF5F7076002E0564F076000BF00BF17
:100B70004E4F08373F6807F0F0010909534F7A5C80
:100B80000768D7404760494F08373F6807F4E0518E
:100B9000890A4E4F7A5C4768D7408760434F0837D1
:100BA0003F6807F46041490B484F7A5C4768D7407B
:100BB000C760F0BD002100F44072B2F5407F0AD159
:100BC0003A4A0832116821F4F811414A02401143AF
:100BD000364A08321160354A70321268C0F30B038E
:100BE0001A43324B70331A607047354944390860F4
:100BF000704733494039086070473649086070478C
:100C000001460020294A8C32106820F01F004A1E3D
:100C10001043264A8C321060704701460020234A58
:100C20008C32106820F4F8504A1E40EA02201F4A15
:100C30008C3210607047014600201C4A8C321068CC
:100C400020F4401008431060704701460020174A06
:100C50008C32106820F44000084310607047014651
:100C60000020124A8C32106820F440300843106093
:100C7000704719490860704739B10C4A3032126820
:100C800002430A4B30331A6006E0084A30321268D9
:100C90008243064B30331A607047F9B1034A34324D
:100CA00012680243014B34331A601CE000380240E2
:100CB000FFFFF6EA10300024003000200000474219
:100CC000800E47420024F40000127A001400002035
:100CD000FFFCFF0F5C014742E01147428F4A126858
:100CE00082438E4B1A60704739B18C4A121D1268CC
:100CF00002438A4B1B1D1A6006E0884A121D1268C7
:100D00008243864B1B1D1A60704739B1834A0C32EF
:100D100012680243814B0C331A6006E07F4A0C32A2
:100D2000126882437D4B0C331A60704739B17B4A9D
:100D3000103212680243794B10331A6006E0774A8A
:100D4000103212688243754B10331A60704739B104
:100D5000724A243A12680243704B243B1A6006E040
:100D60006E4A243A126882436C4B243B1A607047E7
:100D700039B16A4A203A12680243684B203B1A6034
:100D800006E0664A203A12688243644B203B1A60B0
:100D9000704739B1614A1C3A126802435F4B1C3BF1
:100DA0001A6006E05D4A1C3A126882435B4B1C3BAA
:100DB0001A60704739B1594A143A12680243574BC6
:100DC000143B1A6006E0554A143A12688243534BAA
:100DD000143B1A60704739B1504A103A1268024306
:100DE0004E4B103B1A6006E04C4A103A12688243A0
:100DF0004A4B103B1A60704739B1484A1C3212689E
:100E00000243464B1C331A6006E0444A1C32126807
:100E10008243424B1C331A60704739B13F4A20323B
:100E2000126802433D4B20331A6006E03B4A2032F1
:100E300012688243394B20331A60704739B1374A00
:100E4000243212680243354B24331A6006E0334AD9
:100E5000243212688243314B24331A60704739B10F
:100E60002E4A2C32126802432C4B2C331A6006E0B7
:100E70002A4A2C3212688243284B2C331A6070475E
:100E800039B1264A303212680243244B30331A609B
:100E900006E0224A303212688243204B30331A6017
:100EA0007047012808D11D493C31096841F008010B
:100EB0001A4A3C32116007E018493C31096821F0B8
:100EC0000801164A3C321160704739B1134A273A7B
:100ED00012780243114B273B1A7006E00F4A273A5B
:100EE000127882430D4B273B1A7070470B484030F5
:100EF000006840F080700949403108607047014641
:100F00000020064A283A12680A400AB1012000E08F
:100F10000020704701492639087070473438024074
:100F200010B50446FA48844208D101211020FFF789
:100F300052FF00211020FFF74EFF57E0F548844292
:100F400009D101214804FFF735FF00214FF400309B
:100F5000FFF730FF4AE0F048844209D101218804BC
:100F6000FFF728FF00214FF48020FFF723FF3DE02B
:100F7000EA48844209D10121C804FFF71BFF002180
:100F80004FF40020FFF716FF30E0E548844209D116
:100F900001210805FFF70EFF00214FF48010FFF735
:100FA00009FF23E0DF48844208D101212020FFF718
:100FB00012FF00212020FFF70EFF17E0DA488442DD
:100FC00009D101218807FFF7F5FE00214FF080408D
:100FD000FFF7F0FE0AE0D548844207D10121400521
:100FE000FFF7E8FE00216005FFF7E4FE10BD2DE9E4
:100FF000FF4705460E460024A14600BFA046B08923
:1010000000B100BF2C8A24F44054F08804432C82A1
:10101000AC8941F20C608443B088318908437189FE
:1010200008430443AC81AC8A24F44074B08904437F
:10103000AC826846FFF74FFDB548854202D0B948FB
:10104000854202D1DDF80C9001E0DDF80890A88916
:1010500000F4004040B109EBC90000EB0910316811
:101060004900B0FBF1F707E009EBC90000EB0910FC
:1010700031688900B0FBF1F76420B7FBF0F00401A0
:101080002009642101FB1078A88900F4004040B1D8
:10109000322000EBC800B0FBF1F000F00700044381
:1010A00008E0322000EB08106421B0FBF1F000F002
:1010B0000F0004432C81BDE8FF874FF416510160F7
:1010C00000218180C18001810C2141810021818129
:1010D000704710B502460020108A20F470600B881B
:1010E0004C8823438C882343CC88234318431082A5
:1010F00010BD0021018041808180C180704721B1F5
:10110000828942F40052828104E082894DF6FF73A5
:101110001A4082817047028B02F47F420283028B65
:101120000A430283704721B1828942F400428281DE
:1011300003E08289C2F30E028281704721B1828A64
:1011400042F40062828204E0828A4FF2FF731A4006
:1011500082827047C1F30802828070470146888806
:10116000C0F308007047028A4FF6F0731A400282FB
:10117000028A0A430282704721B1828942F0020248
:10118000828104E082894FF6FD731A4082817047A4
:1011900082894FF2FF731A40828182890A438281D9
:1011A0007047028A4FF6DF731A400282028A0A43AE
:1011B0000282704721B1028A42F48042028204E036
:1011C000028A4BF6FF731A4002827047818941F010
:1011D00001018181704721B1828A42F00802828236
:1011E00004E0828A4FF6F7731A4082827047028BBE
:1011F000D2B20283028B42EA01220283704721B1FC
:10120000828A42F02002828204E0828A4FF6DF73F3
:101210001A408282704721B1828A42F01002828293
:1012200004E0828A4FF6EF731A4082827047828A06
:101230004FF6FB731A408282828A0A438282704789
:1012400021B1828A42F00202828204E0828A4FF651
:10125000FD731A40828270471AB1838A0B438382DE
:1012600002E0838A8B4383827047F0B503460024F3
:1012700000260025002040F66A17B94200D100BFC1
:101280001846C1F3421401F01F06012707FA06F5BC
:10129000012C01D10C3004E0022C01D1103000E00F
:1012A00014301AB107682F43076002E00768AF43A4
:1012B0000760F0BD02460020B1F5007F00D100BFFD
:1012C00013880B400BB1012000E00020704701F4AF
:1012D0000072B2F5007F00D100BFCA4302807047A0
:1012E00070B50246002400230025002040F66A164F
:1012F000B14200D100BFC1F3421501F01F03012626
:1013000006FA03F3012D13D19689334017E000004C
:10131000001001400044004000480040004C0040E4
:10132000005000400014014000780040007C004064
:10133000022D02D1168A334001E0968A33400C1206
:10134000012606FA04F41688344013B10CB10120CA
:1013500000E0002070BD10B50022002340F66A14A2
:10136000A14200D100BF0A1201249440A3B2DC4381
:10137000048010BD10B504466FF00400FFF73AF981
:10138000E11704EB5171C1F3C701394A11701046DE
:10139000007800EB4001C1EBC0104FF6FF7101EA8D
:1013A000C0003449088010BD0146314A12784A43D2
:1013B0004FF0E0235A6100229A611A46126942F006
:1013C00001021A6100BF4FF0E022106900F0010233
:1013D0001AB100F48032002AF5D04FF0E0221269F1
:1013E00022F001024FF0E0231A6100229A61704757
:1013F0000146204A12884A434FF0E0235A610022F6
:101400009A611A46126942F001021A6100BF4FF058
:10141000E022106900F001021AB100F48032002AC3
:10142000F5D04FF0E022126922F001024FF0E023E4
:101430001A6100229A61704770B504464FF4077034
:1014400094FBF0F0C6B24FF4077094FBF0F100FB90
:10145000114085B205E04FF40770FFF7C9FF701E19
:10146000C6B2002EF7D115B12846FFF7C1FF70BDF7
:101470002400002026000020014600BF704700BF66
:101480004E4A128802F04002002AF9D0C2B24B4BF9
:101490009A80704710B588B0044601210846FFF7CE
:1014A000EBFB01211020FFF741FC072209214448F2
:1014B000FFF7CFF907220A214148FFF7CAF94FF495
:1014C000C060069002208DF81C008DF81D000020E1
:1014D0008DF81E0001208DF81F0006A93848FFF77F
:1014E0002DF902940020ADF80C00ADF80E00ADF817
:1014F0001000ADF814000C20ADF8120002A92F481E
:10150000FFF775FD01212D48FFF7F9FD40212B481C
:10151000FFF7DDFE012240F225512848FFF7A5FE26
:1015200025208DF8040003208DF805008DF80600B5
:1015300001208DF8070001A8FFF70FF808B010BDD3
:1015400010B540F225511D48FFF7CAFE10B31B48E5
:10155000FFF704FEC4B21B48008800F40040C8B97D
:101560001848008800F4804060B10A2C03D00020A5
:101570001449088020E01348008840F400401149D5
:10158000088019E00D2C06D10E48008840F48040F8
:101590000C49088010E00B480088C0F30D000A4990
:1015A0000C5408480088401C0649088008460088FA
:1015B000C72801DD0020088010BD00000010014098
:1015C000000002402C0000201C01002010B54FF448
:1015D0008071E948FFF714F9012800D110BD0020FF
:1015E000FCE7F0B503460C460021E44DE44E96F9C5
:1015F000006025F816301635E14E96F9006025F8A2
:1016000016401635DE4E96F9006025F81620DC4DA2
:1016100095F900506D1C0A2695FBF6F706FB175549
:101620006DB2D74E357000BF002005E0D34D35F9BF
:1016300010502944451CE8B20A28F7DB0A2591FB23
:10164000F5F52DB2CD4EB5820021002006E0CB4D40
:10165000163535F910502944451CE8B20A28F6DB46
:101660000A2591FBF5F52EB2C44D6E8500210020B0
:1016700006E0C24D2C3535F910502944451CE8B21E
:101680000A28F6DB0A2591FBF5F52EB2BB4DA5F82D
:101690004060BC4D2D78002D49D0B84DB5F914509F
:1016A000B94EB6F90060B54203DAB44DAD8AB64E14
:1016B0003580B24DB5F92A50B44EB6F90060B54246
:1016C00003DAAE4D6D8DB14E3580AC4DB5F940505D
:1016D000AF4EB6F90060B54204DAA84DB5F84050F7
:1016E000AB4E3580A54DB5F91450AA4EB6F9006041
:1016F000B54203DDA14DAD8AA64E35809F4DB5F9AB
:101700002A50A54EB6F90060B54203DD9B4D6D8DA4
:10171000A14E3580994DB5F94050A04EB6F9006004
:10172000B54204DD954DB5F840509C4E3580F0BD76
:101730002DE9FC4104460D46164600208DF80500B3
:101740008DF804008DF803008DF802008DF801007B
:101750008DF800006B46062203213C2002F0C7FCF6
:101760009DF803309DF8027043EA07231AB29DF8F2
:1017700005309DF8047043EA072319B29DF8013043
:101780009DF8007043EA072318B2FFF72AFF7B4851
:10179000808A20807948408D28807848B0F84000C1
:1017A0003080BDE8FC811CB5002409E001AA911E2F
:1017B0006846FFF7BDFFC820FFF7F6FD601CC4B206
:1017C000322CF3DB1CBD70B504460D462A4621467B
:1017D0003C2002F0ECFC70BD684B9B8A0380674B99
:1017E0005B8D0B80654BB3F84030138070473EB57E
:1017F00004466A4601A902A8FFF79AFFBDF908004E
:101800006749B1F90010401A00EE100AB8EEC00A9C
:101810006448D0ED000A20EE200A634880ED000AFB
:1018200084ED000ABDF904006049B1F90010401AC6
:1018300000EE100AB8EEC00A5D48D0ED000A20EEB6
:10184000200A5C4880ED000A84ED010ABDF9000021
:101850005949B1F90010401A00EE100AB8EEC00A5A
:101860005648D0ED000A20EE200A554880ED000AC7
:1018700084ED020A3EBD10B50446072C00DD10BD04
:101880006007010E0120FFF79EFF00BFF7E710B5CC
:101890000446022C00DD10BD21460220FFF793FF15
:1018A0006420FFF781FD00BFF5E71CB50446012168
:1018B0000420FFF7E1F94FF40070009000208DF84C
:1018C000040001208DF8050000208DF8060001209D
:1018D0008DF8070069462848FEF730FF14B1002054
:1018E000FFF7D5FF70210020FFF76DFFA021012039
:1018F000FFF769FF00210220FFF765FF1CBD10B54F
:101900000446062C00DD10BDA006010E0020FFF7E6
:101910005AFF00BFF7E710B504460A213C2002F049
:10192000C3FB20700B213C2002F0BEFB60700C2139
:101930003C2002F0B9FBA07010BD10B50020FFF7ED
:10194000B4FF0020FFF7A3FF0620FFF7D8FFFFF743
:101950002AFF10BD01200B49087000200D490880A6
:101960000D4908800D49088007490880074908800B
:10197000074908807047000000080240E401002089
:101980005D0000205C000020560000205800002070
:101990005A00002050000020520000205400002077
:1019A0003C00002044000020300000203E000020C9
:1019B0004800002034000020400000204C0000209F
:1019C000380000200CB5F0EE400AB6EE000A20EE1A
:1019D000800A8DED010ACDED000A9DED000A10EEA2
:1019E000100AFE49A1EB600000909DED010A9DEDFB
:1019F000001A20EE011ADDED001AB7EE080A01EE1A
:101A0000610A9DED001A20EE010A8DED000A9DEDA0
:101A1000000A0CBD10B502F009F9FFF78EFF322065
:101A2000FFF70AFD02F002F9FFF787FFB7EE000AA1
:101A3000EB4880ED000A9FEDEB0AEB4880ED000AD1
:101A40009FEDE80AE94880ED000A9FEDE60AE848C4
:101A500080ED000AB7EE000AE64880ED000A9FED2F
:101A6000E10AE54880ED000A9FEDDE0AE34880EDDB
:101A7000000A9FEDDC0AE24880ED000A9FEDD90ADA
:101A8000E04880ED000A9FEDD70ADF4880ED000AAC
:101A90009FEDD40ADD4880ED000A9FEDD20ADC48B4
:101AA00080ED000A9FEDCF0ADA4880ED000A9FED35
:101AB000CD0AD94880ED000AD8480068D8490860A6
:101AC000D6480068D749086010BD30B585B00546D6
:101AD0000DF1120004A9031F03AACDE90010891F0C
:101AE00002A801F0F9FF002433E0032C21DA02A858
:101AF00030F9140000EE100AB8EEC00ADFEDCA0A91
:101B000020EE200AC94800EB8400D0ED000A9FEDCA
:101B1000C81A00EE810A05EB840080ED000A05EB8F
:101B2000840090ED000AC14800EB840080ED000ABB
:101B30000EE002A830F9140000EE100AB8EEC00A58
:101B4000DFEDBC0A80EE201A05EB840080ED001A60
:101B5000641C062CC9DB05F11800FFF748FE95ED63
:101B6000030AB54880ED000A95ED040AB34880EDFC
:101B7000000A95ED050AB24880ED000A05B030BDB7
:101B800000B52DED0A0B2DED0E8B95B0944890ED20
:101B9000000AD0ED000A20EE200AF0EE40EA90EDB7
:101BA000000A9148D0ED000A20EE200AF0EE409A9B
:101BB0008B4890ED000A8D48D0ED000A20EE200AF7
:101BC000B0EE408A864890ED000A8948D0ED000AC0
:101BD00020EE200AF0EE40DA834890ED000AD0EDC6
:101BE000000A20EE200AB0EE40AA90ED000A7F48DD
:101BF000D0ED000A20EE200AB0EE40EA7A4890EDDF
:101C0000000A7B48D0ED000A20EE200AF0EE408A60
:101C1000764890ED000AD0ED000A20EE200AB0EEE2
:101C2000409A90ED000A7248D0ED000A20EE200A9A
:101C3000F0EE40AA90ED000AD0ED000A20EE200A56
:101C4000B0EE40DA754800687649086008460068DA
:101C500073490968884215D271480068C0F1FF30A5
:101C600070490968084400EE100AB8EE400ADFED3A
:101C7000750A80EE201A8DED051A6A4800686849D9
:101C800008600EE06748006865490968401A00EE80
:101C9000100AB8EE400ADFED6B0A80EE201A8DEDD7
:101CA000051A059802F072FC41EC100B664880EDB5
:101CB000000B5C4800685A4908609DED260ADDED7E
:101CC000260A20EE200ADDED270A9DED271A00EEF8
:101CD000810ADDED280A9DED281A00EE810A10EE3A
:101CE000101A084602F052FC41EC1C0BB0EE4C0AF4
:101CF000F0EE6C0A03F070FBB0EE40BAF0EE60BAA2
:101D000051EC1B0B02F055FC00909DED000ADFED3D
:101D10004F0A80EE201A9FED4E0A21EE000A8DED4B
:101D2000000A9DED050AF0EE000A60EE200A9DED26
:101D3000051A9FED480AF0EE001A01EE210A80EE26
:101D4000801A9DED000A4448D0ED000A70EE600A4A
:101D500090ED000A01EE200A80ED000ADDED260A72
:101D60009DED261A60EE810A9DED271ADDED271AFA
:101D700041EE210A9DED281ADDED281A41EE210AD7
:101D8000B0EE600AFFF71EFE8DED140A9DED260AE7
:101D9000DDED140A20EE200A8DED260A9DED270ABE
:101DA000DDED140A20EE200A8DED270A9DED280AAC
:101DB000DDED140A20EE200A8DED280ADDED290A5A
:101DC0009DED291A60EE810A9DED2A1ADDED2A1A91
:101DD00041EE210A9DED2B1A40E00000DF59375FEC
:101DE00078000020000000007C000020800000201F
:101DF00084000020880000208C000020900000203B
:101E00009400002060000020640000206800002092
:101E10006C0000207000002074000020240C0040A2
:101E2000A8000020AC000020CDCCCC3E70020020E9
:101E30009A99193F33338341C8000020CC00002019
:101E4000D00000200024F449A000002000008046BB
:101E5000CDCC1C410361023CD8000020DDED2B1AE3
:101E600041EE210AB0EE600AFFF7ACFD8DED140AD9
:101E70009DED290ADDED140A20EE200A8DED290AD8
:101E80009DED2A0ADDED140A20EE200A8DED2A0AC6
:101E90009DED2B0ADDED140A20EE200A8DED2B0AB4
:101EA0009DED290AF0EE000A20EE200AF6EE000A67
:101EB00070EEC90A70EECD0A20EE200ADDED2A0A86
:101EC000B0EE001A60EE810A3EEE6D1A00EE810A55
:101ED000DDED2B0AB0EE001A60EE810A38EE881AAA
:101EE00000EE810A8DED130A9DED290AF0EE000A3D
:101EF00020EE200A7EEE2D0A20EE200ADDED2A0AD1
:101F0000B0EE001A60EE810AB6EE001A31EE4A1AFF
:101F100031EE4D1A00EE810ADDED2B0AB0EE001A0B
:101F200060EE810A3AEEE91A00EE810A8DED120A9E
:101F30009DED290AF0EE000A20EE200A78EEC80A8C
:101F400020EE200ADDED2A0AB0EE001A60EE810ACA
:101F50003AEEA91A00EE810ADDED2B0AB0EE001A66
:101F600060EE810AB6EE001A31EE4A1A31EE491AD5
:101F700000EE810A8DED110A9DED130ADDED130AC5
:101F800020EE200ADDED120A9DED121A00EE810A04
:101F900010EE101A084602F0F9FA41EC1C0BB0EEF4
:101FA0004C0AF0EE6C0A03F017FAB0EE40BAF0EE0D
:101FB00060BA51EC1B0B02F0FCFA10909DED110A77
:101FC0008DED0F0A38EEC80AF0EE000A20EE200A66
:101FD0008DED0E0A39EEAA0AF0EE000A20EE200A74
:101FE0008DED0D0A3EEECA0A30EE490A30EE0D0ABA
:101FF0008DED0C0A9DED100AF0EE000A20EE200A8D
:10200000F6EE000A70EEC90A70EECD0A20EE200A44
:10201000DDED0F0AB0EE001A60EE810A38EEC81A44
:1020200000EE810A8DED0B0A9DED100AF0EE000A1C
:1020300020EE200A7EEE6D0A20EE200ADDED0F0A6A
:10204000B0EE001A60EE810A39EEAA1A00EE810A9B
:102050008DED0A0A9DED100AF0EE000A20EE200A2E
:1020600078EE280A20EE200ADDED0F0AB0EE001A05
:1020700060EE810AB6EE001A31EE4A1A31EE491AC4
:1020800000EE810A8DED090A9DED270ADDED0C0AAF
:1020900020EE200ADDED280A9DED0D1A00EEC10AA2
:1020A000DDED2A0A9DED091A60EE810A9DED2B1ADD
:1020B000DDED0A1A41EE610A30EE200A8DED080AC4
:1020C0009DED280ADDED0E0A20EE200ADDED260A40
:1020D0009DED0C1A00EEC10ADDED2B0A9DED0B1AE9
:1020E00060EE810A9DED291ADDED091A41EE610AC3
:1020F00030EE200A8DED070A9DED260ADDED0D0A72
:1021000020EE200ADDED270A9DED0E1A00EEC10A31
:10211000DDED290A9DED0A1A60EE810A9DED2A1A6D
:10212000DDED0B1A41EE610A30EE200A8DED060A54
:102130009DED080AB5EEC00AF1EE10FA67D09DEDEC
:10214000070AB5EEC00AF1EE10FA60D09DED060A5E
:10215000B5EEC00AF1EE10FA59D09DED080ADFED98
:10216000FE0A60EE200A9DED051AFC4890ED000A7B
:1021700000EE810A80ED000A9DED070ADFEDF60A08
:1021800060EE200A9DED051AF54890ED000A00EE7C
:10219000810A80ED000A9DED060ADFEDEF0A60EE90
:1021A000200A9DED051AEF4890ED000A00EE810A25
:1021B00080ED000AE94890ED000ADDED080AB0EE76
:1021C000001A01EE200ADDED230A30EE200A8DED23
:1021D000230AE34890ED000ADDED070AB0EE001A8D
:1021E00001EE200ADDED240A30EE200A8DED240AEE
:1021F000DC4890ED000ADDED060AB0EE001A01EEB3
:10220000200ADDED250A30EE200A8DED250AD6489C
:1022100090ED000AB1EE400ADDED230A20EE200A1F
:10222000D248D0ED000A9DED241A00EEC10AD04834
:10223000D0ED000A9DED251A00EEC10A9DED051AAC
:10224000CC48D0ED000A40EE010ACDED040A90ED35
:10225000000ADDED230A20EE200AC448D0ED000A72
:102260009DED251A00EE810AC148D0ED000A9DEDD2
:10227000241A00EEC10A9DED051ABB48D0ED000AF4
:1022800040EE010ACDED030ABA4890ED000ADDEDFB
:10229000240A20EE200AB448D0ED000A9DED251A4C
:1022A00000EEC10AB248D0ED000A9DED231A00EEFF
:1022B000810A9DED051AAD48D0ED000A40EE010AF5
:1022C000CDED020AAB4890ED000ADDED250A20EEC7
:1022D000200AA548D0ED000A9DED241A00EE810ADF
:1022E000A248D0ED000A9DED231A00EEC10A9DED33
:1022F000051A9F48D0ED000A40EE010ACDED010A13
:10230000DDED040A9DED041A60EE810A9DED031ACD
:10231000DDED031A41EE210A9DED021ADDED021AF0
:1023200041EE210A9DED011ADDED011A41EE210A6F
:10233000B0EE600AFFF746FB8DED140A9DED040A2E
:10234000DDED140A20EE200A8A4880ED000A9DED9A
:10235000030ADDED140A20EE200A834880ED000A0E
:102360009DED020ADDED140A20EE200A7F4880ED83
:10237000000A9DED010ADDED140A20EE200A7C48DA
:1023800080ED000A15B0BDEC0E8B0AB000BD00B5A3
:102390002DED060B2DED088B95B0774890ED000ADA
:1023A000D0ED000A20EE200A8DED090A90ED000A1A
:1023B0007248D0ED000A20EE200A8DED080A6E4822
:1023C00090ED000A6E48D0ED000A20EE200A8DED57
:1023D000070A694890ED000A6A48D0ED000A20EE2D
:1023E000200A8DED060A654890ED000AD0ED000A3E
:1023F00020EE200A8DED050A90ED000A6048D0ED30
:10240000000A20EE200A8DED040A5C4890ED000AD7
:102410005C48D0ED000A20EE200A8DED030A5848F2
:1024200090ED000AD0ED000A20EE200A8DED020AA0
:1024300090ED000A5348D0ED000A20EE200A8DED01
:10244000010A90ED000AD0ED000A20EE200A8DED81
:10245000000ADDED200A9DED201A60EE810A9DED57
:10246000211ADDED211A41EE210A9DED221ADDED42
:10247000221A41EE210AB0EE600AFFF7A3FA8DEDB1
:10248000140A9DED200ADDED140A20EE200A8DEDE0
:10249000200A9DED210ADDED140A20EE200A8DEDC3
:1024A000210A9DED220ADDED140A20EE200A8DEDB1
:1024B000220A9DED030ADDED070A30EE600AF0EE18
:1024C000000A20EE200A8DED130A9DED080ADDEDCD
:1024D000010A30EE200AF0EE000A20EE200A8DED0F
:1024E000120A9DED090ADDED050A30EE600ADDED08
:1024F000020A30EE600ADDED000A30EE200A8DEDB2
:10250000110A9DED210ADDED110A20EE200ADDED14
:10251000220A9DED121A00EEC10A8DED100A9DED02
:10252000220ADDED130A20EE200ADDED200A9DEDE2
:10253000111A00EEC10A8DED0F0A9DED200ADDEDA6
:10254000120A20EE200ADDED210A9DED131A00EE9D
:10255000C10A8DED0E0A17E08FC2F53C6000002025
:1025600064000020680000207C0000208000002023
:102570008400002078000020880000208C000020CB
:1025800090000020940000209DED100AB5EEC00AD6
:10259000F1EE10FA7ED09DED0F0AB5EEC00AF1EE15
:1025A00010FA77D09DED0E0AB5EEC00AF1EE10FAE2
:1025B00070D09DED100ADFEDFD0A20EE200A10EE2E
:1025C000101A084601F0E2FF41EC1B0BF84890EDB1
:1025D000000B53EC102B51EC1B0B01F0F6FE41EC01
:1025E000190BF44890ED000A10EE100A01F0CEFF2E
:1025F00041EC1A0B53EC192B01F040FE41EC180B87
:1026000001F0D7FF00EE100AEA4880ED000A9DEDC8
:102610000F0ADFEDE60A20EE200A10EE101A084637
:1026200001F0B4FF41EC1B0BE14890ED000B53ECC3
:10263000102B51EC1B0B01F0C8FE41EC190BDE48CE
:1026400090ED000A10EE100A01F0A0FF41EC1A0B09
:1026500053EC192B01F012FE41EC180B01F0A9FF0D
:1026600000EE100AD44880ED000A9DED0E0ADFED61
:10267000CF0A20EE200A10EE101A084601F086FF5D
:1026800041EC1B0BCA4890ED000B53EC102B51ECA6
:102690001B0B00E046E001F098FE41EC190BC74827
:1026A00090ED000A10EE100A01F070FF41EC1A0BD9
:1026B00053EC192B01F0E2FD41EC180B01F079FF0E
:1026C00000EE100ABD4880ED000A9DED1D0ADDED0B
:1026D000100AB7EE001A01EE200AB648D0ED000A43
:1026E00030EE200A8DED1D0A9DED1E0ADDED0F0A6C
:1026F000B7EE001A01EE200AAF48D0ED000A30EE26
:10270000200A8DED1E0A9DED1F0ADDED0E0AB7EEC3
:10271000001A01EE200AA948D0ED000A30EE200A86
:102720008DED1F0AA64890ED000AB1EE400ADDEDDE
:102730001D0A20EE200AA348D0ED000A9DED1E1AC6
:1027400000EEC10AA048D0ED000A9DED1F1A00EE70
:10275000C10A10EE101A084601F018FF41EC1B0BDD
:10276000934890ED000B53EC102B51EC1B0B01F038
:102770002CFE41EC190B954890ED000A10EE100A62
:1027800001F004FF41EC1A0B53EC192B01F076FD1C
:1027900041EC180B01F00DFF0D908C4890ED000AF4
:1027A000DDED1D0A20EE200A8648D0ED000A9DEDE1
:1027B0001F1A00EE810A8448D0ED000A9DED1E1A12
:1027C00000EEC10A10EE101A084601F0DFFE41ECDF
:1027D0001A0B774890ED000B53EC102B51EC1A0BB1
:1027E00001F0F3FD41EC190B754890ED000A10EE75
:1027F000100A01F0CBFE41EC1B0B53EC192B01F03E
:102800003DFD41EC180B01F0D4FE0C906F4890EDAB
:10281000000ADDED1E0A20EE200A6948D0ED000A0C
:102820009DED1F1A00EEC10A6748D0ED000A9DED2C
:102830001D1A00EE810A10EE101A084601F0A6FEDD
:1028400041EC190B5A4890ED000B53EC102B51EC56
:10285000190B01F0BAFD41EC1A0B5A4890ED000A31
:1028600010EE100A01F092FE41EC1B0B53EC1A2BF8
:1028700001F004FD41EC180B01F09BFE0B90534856
:1028800090ED000ADDED1F0A20EE200A4C48D0ED45
:10289000000A9DED1E1A00EE810A4A48D0ED000A9A
:1028A0009DED1D1A00EEC10A10EE101A084601F047
:1028B0006DFE41EC1A0B3E4890ED000B53EC102BD3
:1028C00051EC1A0B01F081FD41EC190B3E4890EDE3
:1028D000000A10EE100A01F059FE41EC1B0B53ECFC
:1028E000192B01F0CBFC41EC180B01F062FE0A90B1
:1028F000DDED0D0A9DED0D1A60EE810A9DED0C1ABD
:10290000DDED0C1A41EE210A9DED0B1ADDED0B1ADF
:1029100041EE210A9DED0A1ADDED0A1A41EE210A67
:10292000B0EE600AFFF74EF88DED140A9DED0D0A2A
:10293000DDED140A20EE200A244880ED000A9DED0A
:102940000C0ADDED140A20EE200A1D4880ED000A75
:102950009DED0B0ADDED140A20EE200A194880EDEA
:10296000000A9DED0A0ADDED140A20EE200A164841
:1029700080ED000A15B0BDEC088B06B000BD10B5A7
:102980002DED048B04461248FFF79FF8104890ED98
:10299000050ADFED100A20EE200ADFED0F0A80EEB7
:1029A000201AB0EE418A90ED040A17E0CDCC4C3EDF
:1029B000A00000206C0000207000002074000020A7
:1029C0008C0000209000002094000020880000204F
:1029D00028020020DB0F4940000034435FED030A6A
:1029E00020EE200A5FED040A80EE201AF0EE418A04
:1029F00090ED030A5FED090A20EE200A5FED0A0A56
:102A000080EE201AB0EE419A90ED080AB0EE404AEE
:102A100090ED070AF0EE403A90ED060AB0EE403A2B
:102A200090ED020AF0EE402A90ED010AB0EE402A45
:102A300090ED000AF0EE401AB0EE481AF0EE680A87
:102A4000B0EE490AFFF79CF8FE4890ED050A5FEDED
:102A50001F0A20EE200A5FED200A80EE201AB0EE59
:102A6000418A90ED040A5FED250A20EE200A5FED11
:102A7000260A80EE201AF0EE418A90ED030A5FEDFF
:102A80002B0A20EE200A5FED2C0A80EE201AB0EE11
:102A9000419A90ED020AF0EE402A90ED010AB0EE64
:102AA000402A90ED000AF0EE401AB0EE481AF0EE1F
:102AB000680AB0EE490AFFF76AFCE34890ED000AA5
:102AC00084ED000AE14890ED000A84ED010AE04837
:102AD00090ED000A84ED020ADE4890ED000A84EDD4
:102AE000030ABDEC048B10BD10B52DED068BB0EEC6
:102AF000408A18EE100A20F00041C1F1FF41C90FD1
:102B000021B19FEDD50ABDEC068B10BDB7EE000AD2
:102B1000B4EEC08AF1EE10FA02DB9FEDD00AF2E7C4
:102B2000BFEE000AB4EEC08AF1EE10FA02D89FEDB3
:102B3000CC0AE8E718EE100A01F028FD41EC1A0B68
:102B4000B0EE4A0AF0EE6A0A01F04EFFB0EE409A8B
:102B5000F0EE609A51EC190B01F02BFD00EE100A1B
:102B6000D1E710B52DED0C8B0446BE48FFF707FFEB
:102B7000BC4890ED010A20EE000AD0ED020A90ED6B
:102B8000021A00EE810AF7EE000AB0EE001A41EEDA
:102B9000400A10EE901A084601F0F8FC41EC1B0BBD
:102BA000B04890ED000AD0ED010A20EE200AD0EDE9
:102BB000020A90ED031A00EE810AF0EE000A20EE00
:102BC000200A10EE101A084601F0E0FC41EC1C0B44
:102BD000B0EE4B1AF0EE6B1AB0EE4C0AF0EE6C0A47
:102BE00002F02AFAB0EE40AAF0EE60AA9FED9E0B2A
:102BF00053EC102B51EC1A0B01F0E7FB41EC190BD5
:102C00009FED9B0B53EC102B01F051FC41EC180B8A
:102C100001F0CFFC00EE100A84ED020A964880ED28
:102C2000000A9048D0ED000A90ED021A60EE810A89
:102C300090ED031AD0ED011A41EE610AB0EE001AD0
:102C400060EE810AB0EE600AFFF74EFFB1EE400A77
:102C50005FED9F0A20EE200A5FEDA20A80EE201AA7
:102C600084ED011A854880ED001A854890ED000A30
:102C7000F8EE000A20EE200AD0ED000A20EE200A2D
:102C80008048D0ED000AB0EE001A60EE810A90EDA7
:102C9000001A00EEC10AF7EE000A30EE200A10EE2C
:102CA000101A084601F072FC41EC1C0B764890EDBE
:102CB000000AF0EE000A20EE200A7148D0ED000A6A
:102CC00020EE200A7148D0ED000AB0EE001A60EE46
:102CD000810A6C4890ED001A00EE810A10EE101A7D
:102CE000084601F053FC41EC1D0BB0EE4C1AF0EE1F
:102CF0006C1AB0EE4D0AF0EE6D0A02F09DF9B0EEDE
:102D000040BAF0EE60BA51EC1B0B81F0004141EC8F
:102D10001A0B9FED550B53EC102B01F056FB41ECB9
:102D2000190B9FED530B53EC102B01F0C0FB41EC42
:102D3000180B01F03EFC00EE100A84ED000A544826
:102D400080ED000ABDEC0C8B10BD00B59BB00020DF
:102D50001A9041E04F48FEF7B8FE4E4890ED000A49
:102D60004D48D0ED000A30EE200A80ED000A4948B7
:102D700090ED010A4948D0ED000A30EE200A80EDBE
:102D8000000A444890ED020A4548D0ED000A30EEB2
:102D9000200A80ED000A3F4890ED060A4148D0ED38
:102DA000000A30EE200A80ED000A3A4890ED070A4A
:102DB0003D48D0ED000A30EE200A80ED000A35488B
:102DC00090ED080A3948D0ED000A30EE200A80ED77
:102DD000000A1A98401C1A901A986428BADB2E48E8
:102DE00090ED000ADFED320A80EE201A80ED001A25
:102DF0002A48D0ED000A9FED2E0A80EE801A80ED61
:102E0000001A274890ED000ADFED290A80EE201A0B
:102E100080ED001A234890ED000ADFED250A80EED0
:102E2000201A80ED001A204890ED000ADFED200AFC
:102E300080EE201A80ED001A1C4890ED000ADFEDAC
:102E40001C0A37E028020020880000208C000020A7
:102E5000900000209400002000000000DB0FC93F1C
:102E6000DB0FC9BF7C02002000000000008066402C
:102E700000000060FB210940B8000020B4000020E1
:102E800080000020840000207C00002078000020CA
:102E9000BC0000204C020020DC000020E0000020EC
:102EA000E4000020E8000020EC000020F0000020FA
:102EB0000000C84280EE201A80ED001AFE4890ED16
:102EC000000AD0ED000A20EE200AFC48D0ED000AEE
:102ED00090ED001A00EE810A8DED130A9DED130AA4
:102EE000FEF770FDF648D0ED000A20EE200A8DEDC9
:102EF000190A199801F04AFBCDE90E019DED0E0B60
:102F000001F02AFF8DED100B9FEDEE0B53EC102B13
:102F10009DED100B51EC100B01F057FACDE91201A9
:102F20009DED120B51EC100B01F043FB1790E448A0
:102F300090ED000AD0ED000A20EE200ADF48D0ED27
:102F4000000A90ED001A00EE810A8DED130A9DED46
:102F5000130AFEF737FDD848D0ED000A20EE200A0C
:102F60008DED190A199801F011FBCDE90E019DEDC7
:102F70000E0B01F0F1FE8DED100B9FEDD20B53EC1B
:102F8000102B9DED100B51EC100B01F01EFACDE94A
:102F900012019DED120B51EC100B01F00AFB189081
:102FA000189801F0F3FACDE908019DED080B02F045
:102FB000A7F98DED0C0BC54890ED000A10EE100A34
:102FC00001F0E4FACDE90A019DED0C0B53EC102B56
:102FD0009DED0A0B51EC100B01F0F7F9CDE9100152
:102FE000189801F0D3FACDE908019DED080B02F025
:102FF0001BF98DED0C0BB64890ED000A10EE100A8F
:1030000001F0C4FACDE90A019DED0C0B53EC102B35
:103010009DED0A0B51EC100B01F0D7F9CDE90E0133
:103020009DED100B53EC102B9DED0E0B51EC100B86
:1030300001F024F9CDE912019DED120B51EC100BBA
:1030400001F0B7FA1590179801F0A0FACDE9080140
:103050009DED080B02F054F98DED0C0B189801F062
:1030600095FACDE904019DED040B02F0DDF88DED3C
:10307000080B964890ED000A10EE100A01F086FA4F
:10308000CDE906019DED080B53EC102B9DED060BD1
:1030900051EC100B01F099F9CDE90A019DED0C0BF3
:1030A00053EC102B9DED0A0B51EC100B01F08DF938
:1030B000CDE91001179801F069FACDE904019DED01
:1030C000040B02F01DF98DED080B189801F05EFA63
:1030D000CDE900019DED000B02F012F98DED040B1E
:1030E0007B4890ED000A10EE100A01F04FFACDE98E
:1030F00002019DED040B53EC102B9DED020B51ECE6
:10310000100B01F062F9CDE906019DED080B53ECBF
:10311000102B9DED060B51EC100B01F056F9CDE98B
:103120000C01179801F032FACDE904019DED040B72
:1031300002F07AF88DED080B664890ED000A10EE6B
:10314000100A01F023FACDE906019DED080B53ECBE
:10315000102B9DED060B51EC100B01F036F9CDE96B
:103160000A019DED0C0B53EC102B9DED0A0B51EC5D
:10317000100B01F083F8CDE90E019DED100B53EC1F
:10318000102B9DED0E0B51EC100B01F018F9CDE951
:1031900012019DED120B51EC100B01F00AFA149084
:1031A000149801F0F3F9CDE91001159801F0EEF94A
:1031B000CDE90E019DED101B9DED0E0B01F03CFFC6
:1031C0008DED120B9DED120B51EC100B01F0F1F98E
:1031D0001690DDED160AB0EE001A80EE810A8DED34
:1031E000070A079801F0D2F9CDE908019DED080B17
:1031F00002F086F88DED0C0BDDED170AB0EE001A2B
:1032000080EE810A8DED030A039801F0BFF9CDE944
:1032100004019DED040B02F073F88DED080BDDED5C
:10322000180AB0EE001A80EE810A8DED030A0398A9
:1032300001F0ACF9CDE904019DED040B02F060F85A
:103240008DED060B9DED080B53EC102B9DED060B41
:1032500051EC100B01F0B9F8CDE90A019DED0C0B12
:1032600053EC102B9DED0A0B51EC100B01F0ADF857
:10327000CDE91001DDED160AB0EE001A80EE810AEC
:103280008DED070A079801F081F9CDE908019DED60
:10329000080B01F0C9FF8DED0C0BDDED170AB0EE48
:1032A000001A80EE810A8DED030A039801F06EF991
:1032B000CDE9040110E00000E0000020E40000205F
:1032C000DC0000206666666666A64C40F0000020C2
:1032D000EC000020E80000209DED040B01F0A4FFAD
:1032E0008DED080BDDED180AB0EE001A80EE810AB4
:1032F0008DED030A039801F049F9CDE904019DED34
:10330000040B01F091FF8DED060B9DED080B53ECC6
:10331000102B9DED060B51EC100B01F056F8CDE98A
:103320000A019DED0C0B53EC102B9DED0A0B51EC9B
:10333000100B01F04AF8CDE90E019DED100B53EC96
:10334000102B9DED0E0B51EC100B00F097FFCDE90B
:1033500012019DED120B51EC100B01F02AF900EE59
:10336000100AFE4880ED000ADDED160AB0EE001AE4
:1033700080EE810A8DED070A079801F007F9CDE983
:1033800008019DED080B01F0BBFF8DED0C0BDDED91
:10339000170AB0EE001A80EE810A8DED030A039839
:1033A00001F0F4F8CDE904019DED040B01F0A8FF54
:1033B0008DED080BDDED180AB0EE001A80EE810AE3
:1033C0008DED030A039801F0E1F8CDE904019DEDCC
:1033D000040B01F029FF8DED060B9DED080B53EC5E
:1033E000102B9DED060B51EC100B00F0EEFFCDE91C
:1033F0000A019DED0C0B53EC102B9DED0A0B51ECCB
:10340000100B00F0E2FFCDE91001DDED160AB0EE81
:10341000001A80EE810A8DED070A079801F0B6F8D0
:10342000CDE908019DED080B01F0FEFE8DED0C0BC2
:10343000DDED170AB0EE001A80EE810A8DED030A69
:10344000039801F0A3F8CDE904019DED040B01F010
:10345000EBFE8DED080BDDED180AB0EE001A80EEE4
:10346000810A8DED030A039801F090F8CDE904017B
:103470009DED040B01F044FF8DED060B9DED080B57
:1034800053EC102B9DED060B51EC100B00F09DFF43
:10349000CDE90A019DED0C0B53EC102B9DED0A0BB1
:1034A00051EC100B00F091FFCDE90E019DED100BDA
:1034B00053EC102B9DED0E0B51EC100B00F07FFF29
:1034C000CDE912019DED120B51EC100B01F071F8DA
:1034D00000EE100AA24880ED000ADDED160AB0EEFB
:1034E000001A80EE810A8DED070A079801F04EF868
:1034F000CDE908019DED080B01F002FF8DED0C0BED
:10350000DDED170AB0EE001A80EE810A8DED030A98
:10351000039801F03BF8CDE904019DED040B01F0A7
:1035200083FE8DED080BDDED180AB0EE001A80EE7B
:10353000810A8DED030A039801F028F8CDE9040112
:103540009DED040B01F0DCFE8DED060B9DED080BEF
:1035500053EC102B9DED060B51EC100B00F035FFDA
:10356000CDE90A019DED0C0B53EC102B9DED0A0BE0
:1035700051EC100B00F029FFCDE91001DDED160A2A
:10358000B0EE001A80EE810A8DED070A079800F070
:10359000FDFFCDE908019DED080B01F045FE8DED25
:1035A0000C0BDDED170AB0EE001A80EE810A8DEDEE
:1035B000030A039800F0EAFFCDE904019DED040B36
:1035C00001F09EFE8DED080BDDED180AB0EE001A3D
:1035D00080EE810A8DED030A039800F0D7FFCDE954
:1035E00004019DED040B01F01FFE8DED060B9DED1A
:1035F000080B53EC102B9DED060B51EC100B00F05B
:10360000E4FECDE90A019DED0C0B53EC102B9DED72
:103610000A0B51EC100B00F0D8FECDE90E019DED28
:10362000100B53EC102B9DED0E0B51EC100B00F01A
:1036300025FECDE912019DED120B51EC100B00F0AF
:10364000B8FF00EE100A474880ED000ADDED160ACB
:10365000B0EE001A80EE810A8DED070A079800F09F
:1036600095FFCDE908019DED080B01F0DDFD8DED25
:103670000C0BDDED170AB0EE001A80EE810A8DED1D
:10368000030A039800F082FFCDE904019DED040BCD
:1036900001F036FE8DED080BDDED180AB0EE001AD4
:1036A00080EE810A8DED030A039800F06FFFCDE9EB
:1036B00004019DED040B01F023FE8DED060B9DED45
:1036C000080B53EC102B9DED060B51EC100B00F08A
:1036D0007CFECDE90A019DED0C0B53EC102B9DED0A
:1036E0000A0B51EC100B00F070FECDE91001DDED7E
:1036F000160AB0EE001A80EE810A8DED070A0798CF
:1037000000F044FFCDE908019DED080B01F0F8FD44
:103710008DED0C0BDDED170AB0EE001A80EE810A7C
:103720008DED030A039800F031FFCDE904019DED12
:10373000040B01F079FD8DED080BDDED180AB0EEFC
:10374000001A80EE810A8DED030A039800F01EFF37
:10375000CDE904019DED040B06E000007800002097
:103760007C0000208000002001F05EFD8DED060B46
:103770009DED080B53EC102B9DED060B51EC100B3F
:1037800000F023FECDE90A019DED0C0B53EC102B4C
:103790009DED0A0B51EC100B00F017FECDE90E0168
:1037A0009DED100B53EC102B9DED0E0B51EC100BFF
:1037B00000F005FECDE912019DED120B51EC100B4E
:1037C00000F0F7FE00EE100A024880ED000A1BB080
:1037D00000BD000084000020904201DD104602E0A0
:1037E000884200DA08467047B4EEC10AF1EE10FADA
:1037F00002DDB0EE410A06E0B4EEE00AF1EE10FAA6
:1038000001D2B0EE600A70470146002900DC09B918
:1038100008467047484200B2FBE702468A4201DA96
:10382000104670470846FCE702468A4201DD104612
:1038300070470846FCE7B0EE401AF0EE601A31EE31
:10384000610AF0EE400AF5EEC00AF1EE10FA05D278
:103850009FED0C0A30EE800AF0EE400AF5EEC00A49
:10386000F1EE10FA09DD9FED080AF4EEC00AF1EE60
:1038700010FA02D2B0EE600A70479FED020A30EEF5
:10388000C00AF9E70000B4430000344310B5034612
:103890000024002203E033F912000444521C8A423F
:1038A000F9DB94FBF1F000B210BD2DE9F0470446BE
:1038B0000D4616461F46DDE90889FE49B1F900109C
:1038C00001EB4101FC4AB2F90020BA1A8818C1176D
:1038D00000EB917189100FFA81FAF648008800F523
:1038E000487002B2F3480088A0F5487001B2504613
:1038F000FFF772FFEF490880B1F9021001EB4101B7
:10390000EE4AB2F90020A8EB02028818C11700EBBA
:10391000917189100FFA81FAE648408800F54870E5
:1039200002B2E4484088A0F5487001B25046FFF763
:1039300053FFE0494880B1F9041001EB4101E04A2E
:10394000B2F90020A9EB02028818C11700EB9171AF
:1039500089100FFA81FAD748808800F5487002B2C2
:10396000D4488088A0F5487001B25046FFF734FF74
:10397000D0498880D348048045808680D248D34986
:10398000097820F811401630D049097820F81150F4
:103990001630CE49097820F811601630CB490978E5
:1039A00020F811701630C949097820F811801630B6
:1039B000C649097820F81190C4480078401C0A21B3
:1039C00090FBF1F201FB1200C04908700A21BE48C9
:1039D000FFF75CFFBC4988820A21BB481630FFF71D
:1039E00055FFB94948850A21B7482C30FFF74EFFEB
:1039F000B549A1F840000A21B3484230FFF746FF1D
:103A0000B149A1F856000A21AF485830FFF73EFFF0
:103A1000AD49A1F86C000A21AB486E30FFF736FFC4
:103A2000A949A1F88200BDE8F08738B50446032310
:103A300002226B21D020009400F0C3FB38BD38B5C2
:103A40000446022304221B21D020009400F0B9FB7D
:103A500038BD38B50446022304221C21D02000942E
:103A600000F0AFFB38BD10B50446234606226B219B
:103A7000D02000F0DBFB10BD10B5954B0122752165
:103A8000D02000F034FB9248007810BD10B5FFF74D
:103A9000F3FF682801D1012010BD0020FCE710B51C
:103AA0000446234605226A21D02000F0BFFB10BD4A
:103AB00010B50446234601223721D02000F0B6FB82
:103AC00010BD10B54FF400718248FCF799FE012833
:103AD00000D110BD0020FCE72DE9FC4704460D464F
:103AE00016461F46DDE90A89FFF7EBFF002877D06D
:103AF000774B0E223B21D02000F0F9FA7448407831
:103B00007349097840EA012000B27349088070487F
:103B1000C0786F49897840EA012000B26F49088077
:103B20006B4840796A49097940EA012000B26C4942
:103B300008806748407A6649097A40EA012000B265
:103B4000684908806248C07A6149897A40EA012060
:103B500000B2654908805E48407B5D49097B40EAC8
:103B6000012000B2614908800846B0F900005E49B2
:103B7000B1F90010CDE900105A48B0F900305848AA
:103B8000B0F900205548B0F900105348B0F90000D2
:103B9000FFF78BFE4C48808A20804B48408D288060
:103BA0004948B0F8400030804748B0F856004249D4
:103BB0000988401A00B238804348B0F86C003F4989
:103BC0000988401A00B2A8F800003F48B0F8820007
:103BD0003B490988401A00B2A9F8000024E0FFE739
:103BE0003948808A20803848408D28803648B0F88F
:103BF000400030803448B0F856002F490988401AF8
:103C000000B238803048B0F86C002C490988401A5E
:103C100000B2A8F800002C48B0F8820028490988B2
:103C2000401A00B2A9F80000BDE8FC8710B588B0C2
:103C300001210420FDF720F84FF4007003900020CC
:103C40008DF8100001208DF8110000208DF8120071
:103C500001208DF8130003A91E48FCF76FFD012019
:103C6000FFF7E3FE0320FFF7EAFE0020FFF7F1FE77
:103C70000020FFF7F8FE0020FFF711FF0120FFF7FB
:103C800017FF002307223721D02000F0CFFA0023AE
:103C900006223721D02000F0C9FA0123052237215E
:103CA000D02000F0C3FA012304223721D02000F0F5
:103CB000BDFA1DE0FC000020F6000020F800002006
:103CC000FA000020020100209A020020F4000020E7
:103CD0008C02002000080240080100200A01002098
:103CE0000C0100200E010020100100201201002014
:103CF000012300223821D02000F098FA0320082365
:103D000007221A210090D02000F05BFA00240FE077
:103D10003220FDF749FB0DF11E0007A9031F06AA7B
:103D2000CDE90010891F05A8FFF7D6FE601CC4B2BC
:103D30000A2CEDDB08B010BDF0B5DDE90545414EBC
:103D4000B68A06803F4E768D0E803E4EB6F84060B5
:103D500016803C4EB6F856603B4F3F88F61B36B295
:103D60001E80384EB6F86C60384F3F88F61B36B26E
:103D70002680344EB6F88260354F3F88F61B36B247
:103D80002E80F0BD2DE9F04786B0002500260027E3
:103D9000A846A946AA4600202B4908802B4908803E
:103DA0002B49088000240FE06420FDF7FDFA0DF197
:103DB000160005A9031F04AACDE90010891F03A856
:103DC000FFF78AFE601CC4B2322CEDDB002421E038
:103DD000C820FDF7E9FA0DF1160005A9031F04AA92
:103DE000CDE90010891F03A8FFF776FEBDF90C008E
:103DF0008044BDF90E008144BDF910008244BDF934
:103E000012000544BDF914000644BDF9160007442C
:103E1000601CC4B2642CDBDB642095FBF0F000B2C4
:103E200009490880642096FBF0F000B20749088039
:103E3000642097FBF0F000B20549088006B0BDE8A9
:103E4000F08700009A020020F6000020F800002011
:103E5000FA0000201CB501210220FCF70DFFC02054
:103E6000009001208DF8040002208DF8050000204C
:103E70008DF806008DF807006946FC48FCF75EFCEB
:103E80001CBD10B5F948006820F44040F7490860AF
:103E90000846006840F4804008600120F44908604A
:103EA000F449C1F898020220FDF77EFA0020F0499B
:103EB00008600220FDF778FA0020EE49C1F8980268
:103EC00010BD10B5E948006820F44040E74908609B
:103ED0000846006840F4804008600020E449091F5B
:103EE0000860E449C1F89C020220FDF75DFA012058
:103EF000DF49091F0860DF49C1F89C020220FDF775
:103F000053FA10BD10B50024D848006820F4404092
:103F1000D64908600846006808600120D449086056
:103F2000FDF742FA0120D349C1F89802FDF73CFAA7
:103F300010E0601CC4B2322C09DDFFF7C2FFCE488E
:103F40000088401C00B2CC490880012010BD01202F
:103F5000FDF72AFAC648803800680028E9D1C4492C
:103F6000091F086000BFF1E710B50020C049091F14
:103F70000860BE48006820F44040BC49086008461C
:103F8000006840F4804008600020BA49C1F89C02F3
:103F90000120FDF709FA0120B549091F0860FDF766
:103FA00003FA0020B349C1F8980210BD10B50020F3
:103FB000AF49091F0860AD48006820F44040AB4994
:103FC00008600846006840F4804008600120A94964
:103FD000C1F89C02FDF7E8F90120A549091F086016
:103FE000FDF7E2F90020A349C1F8980210BD70B5B1
:103FF00004469E48006820F440409C4908600846FA
:10400000006840F48040086000209949091F08605A
:10401000002516E0E009964908606006040E0120BC
:10402000FDF7C2F901209349C1F89802FDF7BCF9E8
:1040300000208F49091F08600120FDF7B5F9681CB1
:10404000C5B2082DE6DB70BD70B505460024874873
:10405000006820F440408549086008460068086010
:10406000002617E000208249091F08600120FDF7A3
:104070009BF901207F49C1F898026006040E7C4834
:104080008038006808B1601CC4B20120FDF78CF9CB
:10409000701CC6B2082EE5DB15B1FFF765FF01E025
:1040A000FFF784FF204670BD70B505460E4600241C
:1040B000FFF7E7FE2846FFF79AFF641CFFF722FF91
:1040C0003046FFF794FF641CFFF71CFFFFF7D9FE93
:1040D000691CC8B2FFF78BFF641CFFF713FF0020B9
:1040E000FFF7B2FF0446FFF7ECFE204670BD2DE956
:1040F000F0410746884615461E460024FFF7C1FEDC
:104100003846FFF774FFFFF7FDFE4046FFF76FFFED
:10411000FFF7F8FEFFF7B5FE791CC8B2FFF767FF9F
:10412000FFF7F0FE00BF0DE0681EA04204D00120A2
:10413000FFF78AFF305503E00020FFF785FF305579
:10414000601CC4B2AC42EFDBFFF7BBFE2046BDE80B
:10415000F0812DE9F04180460D4616461F460024A9
:10416000FFF78FFE4046FFF742FFFFF7CBFE2846E2
:10417000FFF73DFFFFF7C6FE00BF06E0385DFFF723
:1041800036FFFFF7BFFE601CC4B2B442F6DBFFF798
:1041900098FE0120BDE8F08170B505460E46144634
:1041A00031462846FFF780FF2070012070BD37B5EB
:1041B00004460D4602AB012229462046FFF7C9FFFF
:1041C0003EBD2DE9F8430746884614461D46089E25
:1041D0006A4641463846FFF7DFFF28B3601CFF21DF
:1041E00001FA00F0C4F108012944491EFF220A41E6
:1041F000104300F0FF09C5F1080006FA00F0C6B24E
:10420000C4F1070006419DF8000000EA0900009093
:104210009DF80000304300909DF80020414638464C
:10422000FFF7C5FFBDE8F8830020FBE7F8B50646B9
:104230000F4614461D466A4639463046FFF7ACFF26
:104240002DB10120A0409DF80010084305E0012099
:10425000A0409DF8001021EA0000C0B200909DF837
:10426000002039463046FFF7A2FFF8BD00040240A7
:104270009C82404200804042140100202DE9FE4F04
:10428000804681EA0300C00F0C46009021F00041F7
:1042900023F00045B8EB0200A94105D24046214673
:1042A00090461C460B46024623F00040104347D080
:1042B000270DC7F30A00C3F30A510290401A019078
:1042C00040286BDAC3F3130040F4801B0098924639
:1042D00020B10023D2EB030A63EB0B0B0198594684
:1042E000C0F14002504600F0C7F906460D46504660
:1042F0005946019A00F0CFF910EB08006141002403
:1043000087EA115284EAE7731A4340D0009A62B3F5
:10431000019A012A4FEA075215DC001B61EB0201EA
:104320004FF0004202EA0752CDE90042001C41F57D
:10433000801132462B4600F004FA03B0BDE8F08F3E
:1043400040462146F9E7001B61EB0201001C41F5E4
:10435000801300185B412018A2F5001747EB0301FA
:1043600040EAD570B6196D4111E06D084FEA360686
:1043700045EAC0754FEA0752001B61EB0201001CC1
:1043800041F5801149084FEA300000195141324689
:104390002B4603B0BDE8F04F00F0C6B900980122EB
:1043A00040000023D0EB020263EBE073009821464B
:1043B0004FEAE074B8EB000061EB0401E9E783F039
:1043C00000435BE781F0004158E72DE9FE4F81EAA9
:1043D000030404F0004421F0004100944FF0000B6E
:1043E00023F0004350EA01045ED052EA03045BD09C
:1043F000C3F30A54C1F30A552C44A4F2F3340194D4
:10440000A0FB0254C1F3130141F48011C3F3130361
:1044100043F4801301FB024400FB034E840A970A15
:1044200044EA815447EA8357A4FB076802958D0A42
:1044300005FB07854FEA932C04FB0C542705029DCE
:104440004FEA065847EA1637B5EB08056EEB070C3E
:10445000870E920E47EA811742EA8312A7FB0201F8
:10446000B6EB0B0164EB00042B0D43EA0C335E1832
:1044700044EB1C50DA465146E7FB0201C5F3130436
:104480004FEA0B3343EA14534FEA0432019C43EAE8
:104490000603A4F10C040294009CCDE900B400F0E2
:1044A00050F903B0BDE8F08F00200146F9E72DE98F
:1044B000F04D81EA030404F0004B21F0004514465E
:1044C0004FF0000A23F0004150EA050220D054EAE0
:1044D00001021DD0C5F30A570246C5F31303C1F309
:1044E0001300C1F30A5640F4801543F48013A7EB80
:1044F0000608101BD64608F2FD3873EB050002D300
:1045000008F1010801E092185B41B8F1000F03DAED
:1045100000200146BDE8F08D00204FF480110646D2
:1045200084460EE0171B73EB050705D3121B63EBE4
:10453000050306434CEA010C49084FEA3000921883
:104540005B4150EA0107EDD152EA030012D082EA42
:10455000040083EA0501084305D0101BAB4106D2D5
:104560000122002306E000224FF0004302E06FF03A
:10457000010253101AEB06004CEB085110EB0A0035
:1045800041EB0B01BDE8F04D00F0CEB800F0004269
:1045900030F000400AD0C10D01F56071C0F3160083
:1045A00042EA0151C208400711437047002001460A
:1045B000704701F0004330B421F0004150EA01029D
:1045C00006D00A0DA2F56072C1F31301002A02DCC5
:1045D00030BC00207047440F44EAC104C100E01819
:1045E00030BC00EBC25000F068B830B50B46014655
:1045F00000202022012409E021FA02F59D4205D382
:1046000003FA02F5491B04FA02F52844151EA2F12B
:104610000102F1DC30BD2DE9F05F05460020924635
:104620009B4688460646814640241BE02846414674
:104630004746224600F062F953465A46C01A914155
:1046400010D311461846224600F016F82D1A67EBD3
:1046500001084F4622460120002100F00DF817EB1B
:1046600000094E41201EA4F10104DFDC484631461A
:104670002A464346BDE8F09F202A04DB203A00FA90
:1046800002F1002070479140C2F1200320FA03F3A9
:10469000194390407047202A06DBCB17203A41FA95
:1046A00002F043EAE07306E041FA02F3D040C2F1BF
:1046B000200291400843194670470029A8BF70475F
:1046C000401C490008BF20F00100704710B4B0FA48
:1046D00080FC00FA0CF050EA010404BF10BC7047E3
:1046E00049B1CCF1200421FA04F411FA0CF118BFFD
:1046F000012121430843A3EB0C01CB1D4FEA0061CC
:104700004FEA102042BF002010BC704700EBC3509E
:1047100010440029A4BF10BC7047401C490008BFCA
:1047200020F0010010BC704710B5002B08DA401CC7
:1047300041F1000192185B411A4301D120F00100C0
:1047400010BD2DE9F04D92469B4611B1B1FA81F2B0
:1047500002E0B0FA80F220329046FFF78DFF044667
:104760000F4640EA0A0041EA0B0153465A46084305
:1047700013D0114653EA010019D0C8F14002504647
:1047800000F0BCF805460E46504659464246FFF733
:1047900073FF084305D0012004E020463946BDE8F8
:1047A000F08D0020054346EAE0762C4337430A9813
:1047B0006305E40AA0EB08000022FD0A44EA47541E
:1047C0000A3002D500200146E9E7010510196941C8
:1047D000DDE9084500196941BDE8F04DA4E72DE980
:1047E000F04D00231A461B1A8A4103DB00200146C4
:1047F000BDE8F08DC1F30A52C1F3130141F48015F5
:104800004FF0000BD10702D100186D41521E002756
:10481000044640F2FF11384601EB620A3E468046EC
:10482000024600204FF4801100F068F8C21971416F
:10483000BB1846EB0100B4EB030C75EB000C04D382
:10484000E41A65EB000517460E46241908F101002D
:104850006D4180463428E3DDF91946EB0600091B5B
:10486000A84103D24FF0FF32134601E00022134665
:104870001BEB070046EB0A51BDE8F04DFFF754BFB4
:10488000C1F30A52C1F3130140F2FF3341F4801126
:104890009A4202DA00200146704740F233439A42BE
:1048A000A2F2334202DC524200F028B8FFF7E4BE25
:1048B00030B5002904DB4FF00044404264EB0101B5
:1048C000002B04DB4FF00044524264EB0303994297
:1048D00008BF904230BD0000064C074D06E0E0687E
:1048E00040F0010394E8070098471034AC42F6D337
:1048F000FBF74EFCB0670008D0670008202A04DBF5
:10490000203A21FA02F00021704721FA02F3D04048
:10491000C2F1200291400843194670470EB5C10FFD
:1049200080EAE0700844CA07002140F233438DE872
:104930000E000A460B46FFF704FF03B000BD0EB59C
:1049400040F2334102910021CDE900110A460B46A5
:10495000FFF7F7FE03B000BD70B5C1F30A5201F0D6
:1049600000450024C1F3130140F2FF3341F48011EC
:104970009A4201DA002070BD40F233439A42A2F21B
:10498000334203DC5242FFF7B9FF00E090402C4372
:10499000F1D0404270BD00000FB4054B10B503A923
:1049A000044A029801F018FA10BC5DF814FB0000EC
:1049B0007F1400082800002003B4019841000098EB
:1049C00050EAC12018BF04204A0D18BF40F0010072
:1049D00040F2FF72B2EB515F08BF40F002000128C5
:1049E00008BF052002B0704770B5C1482DED020B1D
:1049F0002DED0E8B82B0119D25F000449FEDBEDBA6
:104A00009FEDBFEB844240DBA4F140511098A1F12F
:104A10007F6108430ED0BC48844202DC27D1109845
:104A200028B39DED100B53EC102B51EC100BFFF73E
:104A300025FC27E09DED100B53EC1D2B51EC100BCA
:104A4000FFF7C3FC9DED100B41EC180B53EC1E2B34
:104A500051EC100BFFF7B9FC53EC182BFFF70EFCD1
:104A600041EC100B02B0BDEC0E8B02B070BD01200A
:104A700001F0FAF89FEDA60B53EC102B51EC100B44
:104A8000FFF715FD41EC100BECE7A3489FEDA48B5D
:104A9000844256DA9DED100BB4F1795F0ADA51ECDD
:104AA000100BFFF789FF042808BF01F0BDF89DED4A
:104AB000100BD7E753EC102B51EC100BFFF785FCD4
:104AC00041EC190B98480621B0EE490AF0EE690A4C
:104AD000784400F095FF53EC192B51EC100BFFF7C5
:104AE00074FC41EC1A0B9148B0EE490AF0EE690AE9
:104AF0000421784400F084FF53EC192B51EC100B87
:104B0000FFF763FC53EC182BFFF7B8FB41EC100BDD
:104B100051EC1A0B53EC102BFFF7C9FCCDE9000147
:104B20009DED000B53EC102B9DED100B51EC100B79
:104B3000FFF74BFC9DED101B53EC112BFFF79EFB79
:104B4000A0E79DED100B51EC100B01F0E4FC53ECD1
:104B5000182BFFF737FC9FED760BCDE9000153ECE6
:104B6000102B9DED000B51EC100BFFF72EFC41ECD0
:104B7000190B71480621B0EE490AF0EE690A784433
:104B800000F03EFF53EC192B51EC100BFFF71DFC0E
:104B900041EC1B0B6948B0EE490AF0EE690A0421AA
:104BA000784400F02DFF53EC192B51EC100BFFF75C
:104BB0000CFC53EC182BFFF761FB41EC1C0B51EC88
:104BC000190B01F0B4FC41EC180B5D489FED5EAB96
:104BD000A04222DC53EC1C2B51EC1B0BFFF767FCB3
:104BE000CDE900019DED000B51EC180B53EC102B9F
:104BF000FFF7EBFB53EC182BFFF740FB53EC1A2BA2
:104C0000FFF7E3FB53EC1D2BFFF7D9FB53EC1E2BF7
:104C1000FFF7D8FB41EC100B5FE08DED008B00201F
:104C200000909DED000B51EC180B53EC102BFFF78F
:104C300025FB9DED000B41EC1E0B53EC102B51ECB2
:104C4000100BFFF7C2FB53EC192BFFF7BBFB53EC28
:104C50001E2BFFF72CFC41EC190B53EC1C2B51ECD9
:104C60001B0BFFF724FC41EC1B0B53EC1A2B51ECF4
:104C7000190BFFF7AAFB53EC1D2BFFF7A3FB41EC2D
:104C8000190B53EC1A2B51EC180BFFF79EFB53EC4E
:104C90001B2BFFF79AFB53EC192BFFF790FB9DEDB5
:104CA000000B41EC180B53EC1A2B51EC100BFFF7D7
:104CB0008CFB9FED279B53EC192BFFF783FB41ECFB
:104CC000100B51EC180B53EC102BFFF778FB53EC47
:104CD000192BFFF777FB41EC100B002D3FF7C2AE0D
:104CE00051EC100B81F00041CCE600000000000008
:104CF0000000F03F00000000075C143326A6913C42
:104D0000182D4454FB21F93F0000F07F0000000003
:104D100000000000000000000000E03F0000000074
:104D2000000000000000F03FCC1A0000DA1A00007A
:104D3000000000000000E03F1E1A00002C1A0000D6
:104D40003333EF3F0000000000000000000000408F
:104D5000182D4454FB21E93F70B59D482DED020B01
:104D60002DED068B079D25F00044A0421DDC9948DF
:104D7000844202DC0FD1069868B19DED060B53EC1E
:104D8000102B51EC100BFFF779FABDEC068B02B03B
:104D900041EC100B70BD002DCCBF9FED8F0B9FED34
:104DA000900BBDEC068B02B070BD8F48A04215DDA4
:104DB0008E48A042D8BF4FF0FF3458DD9DED060B62
:104DC00051EC100BFFF7F8FD042808BF00F02CFF92
:104DD0009DED060BBDEC068B02B070BD9DED060B84
:104DE00051EC100B01F097FBCDE9060180489FEDD7
:104DF000828BA0423CDD8248A0421FDD00249FED53
:104E000082AB9DED060B53EC1A2B51EC100BFFF708
:104E100035FA9DED060B41EC190B53EC1A2B51ECB6
:104E2000100BFFF7D2FA53EC182BFFF7C8FA53EC2C
:104E3000192BFFF73CFBCDE9060149E09DED060B80
:104E4000012453EC182B51EC100BFFF717FA9DEDD2
:104E5000060B41EC190B53EC182B51EC100BFFF720
:104E6000AEFA53EC192BFFF722FBCDE906012FE038
:104E70006748A0421FDD02249FED679B9DED060B56
:104E800053EC192B51EC100BFFF79FFA53EC182B36
:104E9000FFF7F4F99DED060B41EC180B53EC192BC1
:104EA00051EC100BFFF78BFA53EC182BFFF7FFFABE
:104EB000CDE906010CE09DED060B032453EC102B0D
:104EC0009FED570B51EC100BFFF7F1FACDE90601FE
:104ED0009DED060B53EC102B51EC100BFFF775FA00
:104EE00041EC180B53EC182BFFF76FFA41EC190B40
:104EF0004D480621B0EE490AF0EE690A784400F008
:104F00007FFD53EC182B51EC100BFFF75EFA41ECD0
:104F1000180B4648B0EE490AF0EE690A05217844BC
:104F200000F06EFD53EC192B51EC100BFFF74DFA0E
:104F300041EC100B51EC180B53EC102B002C0EDA3B
:104F4000FFF79CF99DED061B53EC112BFFF73DFA83
:104F50009DED061B53EC112BFFF734FA35E0FFF7FC
:104F60008DF99DED061B53EC112BFFF72EFA41EC4A
:104F7000100B2F48784400EBC40090ED001B51EC5F
:104F8000100B53EC112BFFF71AFA9DED061B53EC97
:104F9000112BFFF714FA41EC100B2648784400EB74
:104FA000C40090ED001B51EC100B53EC112BFFF7DC
:104FB00009FA41EC100B002DA2BFBDEC068B02B02C
:104FC00070BD51EC100B81F0004141EC100B01E77A
:104FD000000010440000F07F182D4454FB21F93FDD
:104FE000182D4454FB21F9BF0000DC3F0000203E97
:104FF0000000F33F00000000000000000000F03F50
:105000000000E63F0000000000000000000000403B
:105010000080034000000000000000000000F83F96
:10502000000000000000F0BF581700000E1700003D
:10503000981600005016000070B56B4E2DED040B55
:105040002DED028B82B0DDF81CC0DDE905235C424A
:105050002CF000411C4341EAD474049D22F000402E
:10506000B44205D86C422C4340EAD474B44210D9FF
:105070009DED060B53EC102B9DED040B51EC100B2A
:10508000FFF7FCF841EC100B02B0BDEC028B04B052
:1050900070BDACF14054A4F17F641C430BD00224DA
:1050A00004EAAC7444EAD27405439FED518B9FED42
:1050B000522B07D010E09DED040B51EC100B01F0CA
:1050C00022FA39E0002C14BF012C9DED040BDBD03B
:1050D000022C34D0032C37D00B439FED491B9FED9E
:1050E0004A0B0AD0B14218D1B04209D121F0804117
:1050F00020F08040079105900FE0002AC4DA10E00C
:10510000434B7B44002C08BF93ED000BBCD0012C1B
:105110000CD0022C13D0032C16D0B04219D1002A87
:10512000B2DAB0EE410AF0EE610AADE793ED000BA2
:1051300051EC100B81F0004141EC100BA4E7B0EEF4
:10514000480AF0EE680A9FE7B0EE420AF0EE620A03
:105150009AE7401A00153C28C8BF8DED000B19DCFA
:10516000BCF1000FBEBF10F13C0F9FED2B0B8DED7E
:10517000000B0FDB9DED060B53EC102B9DED040B8C
:1051800051EC100BFFF793F901F0C5F901F0BBF9F1
:10519000CDE90001002C08BF9DED000B3FF474AF7A
:1051A000012C10D0022C9FED1E0B53EC102B9DED0B
:1051B000000B51EC100B0DD0FFF701F953EC182B3D
:1051C000FFF7FDF8B8E7019880F0004001909DEDF1
:1051D000000B59E7FFF7F3F853EC182BFFF7F2F841
:1051E000AAE70000000000000000F07F00000000BF
:1051F000182D4454FB210940182D4454FB2109C0AB
:10520000182D4454FB21F9BF182D4454FB21F93FBC
:10521000B2150000000000000000000000000000C7
:10522000075C143326A6A13C10B533492DED020BC3
:105230002DED028B84B09FED2E8B079820F000405F
:10524000B0EE481AF0EE681A8842D8BF9DED060B02
:1052500036DD2A4988420CD1069858B94FF0010032
:1052600000F002FD53EC182B51EC180BFFF71FF95F
:1052700034E008DB9DED060B53EC102B51EC100BCA
:10528000FEF7FCFF2AE068469DED060B00F0E4F80F
:1052900010F0030004BF9DED021B9DED000B0FD02D
:1052A000012810D09DED021B9DED000B022818D0A7
:1052B000012000F021FC04B0BDEC028B02B010BD57
:1052C00000F0E6FAF7E79DED021B9DED000B0120D3
:1052D00000F012FC51EC100B81F0004141EC100B7E
:1052E000E9E700F0D5FA51EC100B81F00041F5E749
:1052F0000000000000000000FB21E93F0000F07FFB
:1053000010B533492DED020B2DED028B84B09FEDCE
:105310002E8B079820F00040B0EE481AF0EE681A85
:105320008842DCBF00209DED060B35DD294988420F
:105330000CD1069858B94FF0010000F095FC53ECE1
:10534000182B51EC180BFFF7B2F83AE008DB9DED93
:10535000060B53EC102B51EC100BFEF78FFF30E0D7
:1053600068469DED060B00F077F810F003000ED0B4
:10537000012818D09DED021B9DED000B022819D0CD
:1053800000F086FA51EC100B81F0004119E09DED20
:10539000021B9DED000B012000F0AEFB04B0BDEC44
:1053A000028B02B010BD9DED021B9DED000B00F0C5
:1053B0006FFAF3E7012000F09FFB51EC100B81F036
:1053C000004141EC100BE9E7000000000000000084
:1053D000FB21E93F0000F07F00B52DED048BB0EE1E
:1053E000409AF0EE609A83B051EC190BFFF7F7F991
:1053F00041EC180B18EE100A18EE901A8DED008B88
:10540000002818BF0120084320F00040C0F17F6051
:1054100000F1E040C00F14D019EE101A19EE900AF6
:105420008DED009B002918BF0121084320F00040AA
:10543000C0F17F6000F1E040C00F04BF012000F028
:1054400013FCB0EE480A03B0F0EE680ABDEC048B22
:1054500000BD0000000000002DE9F14F04462DEDD5
:10546000020B2DED088B96B09FEDE70B80ED020B44
:105470001F9EE74826F0004585420ADC9DED1E0B85
:10548000002084ED000B16B0BDEC088B03B0BDE826
:10549000F08FE0489FEDE0AB9FEDE1BBA84247DD18
:1054A000E14F9FEDE38B9FEDE49B9DED1E0B53ECD5
:1054B0001A2B51EC100B002E1CDDFEF780FF41EC87
:1054C000100BBD4208D053EC1B2B51EC100BFEF718
:1054D00076FFC4E900010BE053EC182B51EC100BE4
:1054E000FEF76DFF53EC192BFEF769FFC4E90001CD
:1054F0000120C8E7FEF7C2FE41EC100BBD4208D008
:1055000053EC1B2B51EC100BFEF7B8FEC4E9000165
:105510000BE053EC182B51EC100BFEF7AFFE53ECE5
:10552000192BFEF7ABFEC4E900014FF0FF30AAE7EC
:10553000C348A84279DB9DED1E0B51EC100B00F027
:10554000EAFF41EC180B9FEDC00B53EC102BFEF75C
:105550003CFF9FEDBF1B53EC112BFEF78FFEFFF7B7
:10556000FBF90746FFF7DAF941EC190B53EC1A2B5C
:10557000FEF72BFF53EC182BFEF724FF41EC180B22
:1055800053EC1B2B51EC190BFEF71FFFDFF8C8A2E1
:1055900041EC100B4FEA15580125FA4453EC102B3F
:1055A00051EC180BFEF70BFF032DC4E900013DD0B1
:1055B000C1F30A5005EB4511A8EB000011398142F7
:1055C00034DA0AEB051BB0EE48AA9BED000BF0EEB7
:1055D00068AA53EC102B51EC190BFEF7F6FE41ECC8
:1055E0001B0B51EC1A0B53EC1B2BFEF7E8FE41ECA6
:1055F000180B51EC1A0B53EC182BFEF7E0FE53EC92
:105600001B2BFEF7DCFE9BED020B41EC1A0B53EC5F
:10561000102B51EC190BFEF7D8FE53EC1A2BFEF7AA
:10562000CEFE41EC100B6D1CB8E70EE0002EA8BFBB
:105630003846BFF628AF94ED000B51EC100B81F00B
:105640000041C4E9000178421DE7C6F3130040F4AD
:10565000801005901E980E90C6F30A50A0F2F53007
:1056600000F01F07411100200C900D907B48C7F1FE
:105670002008784400EB810000F114030DA80626F1
:1056800019685A68B94022FA08F21143059AD0F80D
:1056900000A0A1FB02C50E9AA1FB022192448C44FA
:1056A000924534BF4FF0010B4FF0000B50F8042C23
:1056B0000CEB0B0E72448C4534BF012100212944B0
:1056C000BBF1000F02D0624502D904E0624502D26C
:1056D0004FF0010C01E04FF0000C40F808A96144C4
:1056E000E0E801121B1F761ECAD1089800F1005095
:1056F000850F0898DDE909678000DDF82C80FFF749
:105700000DF941EC1B0B3046FFF719F99FED541BC7
:1057100053EC112BFEF759FE41EC180B3846FFF7FE
:105720000EF99FED511B53EC112BFEF74EFE41EC91
:10573000190B4046FFF703F99FED4D1B53EC112B5E
:10574000FEF743FE41EC1A0B51EC190B53EC1A2BEC
:10575000FEF794FD53EC182BFEF790FD53EC1B2B3A
:10576000FEF78CFDCDE90401002004909DED040BB3
:1057700053EC1B2B51EC100BFEF721FE53EC182BB6
:10578000FEF71DFE53EC192BFEF719FE53EC1A2BF6
:10579000FEF718FE9FED381B53EC112BFEF715FE9C
:1057A0009FED370B41EC180B53EC102B9DED040BC8
:1057B00051EC100BFEF709FE53EC182BFEF75EFDC3
:1057C0009FED310B41EC180B53EC102B9DED040BAE
:1057D00051EC100BFEF7F9FD53EC182BFEF74EFDC4
:1057E00041EC100B1F9810F0004F06D06D4251ECA9
:1057F000100B81F0004141EC100B284684ED000BAA
:1058000041E6000000000000000000000000000071
:10581000FB21E93F7CD9024000004054FB21F93FC5
:105820003163621A61B4D03DFB21F93F00000000F2
:105830000000601A61B4D03D7370032E8A19A33B37
:10584000FB2139410000000083C8C96D305FE43F8F
:10585000000000000000E03F221100007A1000006C
:10586000000000000000103E000000000000103C9E
:10587000000000000000103A182D4454FB21F93DAF
:105880003326A611460B113C00000054FB21F93DC4
:1058900010B52DED040B2DED088B82B0B0EE419AC2
:1058A000F0EE619A0B9820F000449FED4BABB4F101
:1058B000795F11DA9DED0A0B51EC100BFFF74CF8F4
:1058C000002801BFB0EE4A0AF0EE6A0A02B0BDEC51
:1058D000088B04BF04B010BD9DED0A0B53EC102BD8
:1058E00051EC100BFEF771FD41EC180B3C48062102
:1058F000B0EE480AF0EE680A784400F081F853EC04
:10590000182B51EC100BFEF760FD9DED0A0B41ECDE
:105910001B0B53EC192B51EC100BFEF756FD41EC11
:10592000190B53EC1B2B51EC180BFEF74EFD53ECEF
:10593000192BFEF744FD9FED2C0B41EC190B53EC9A
:10594000102B51EC180BFEF740FD41EC100B2848D2
:10595000844210DA53EC192B51EC100BFEF72FFD9B
:1059600053EC1A2BFEF72EFD41EC100B02B0BDECF0
:10597000088B04B010BD1F48A042BCBF9FED1E1B8A
:105980008DED001B06DBA4F50010019000200090B7
:105990009DED001B51EC100B53EC112BFEF70FFD8E
:1059A0009DED000B41EC180B53EC102B51EC1A0B36
:1059B000FEF705FD41EC1A0B53EC192B51EC180BBB
:1059C000FEF7FDFC53EC1A2BFEF7FCFC41EC100B30
:1059D000CCE7000000000000000000000000F03FE5
:1059E0008C0D000000000000000000000000E03FFF
:1059F0003333D33F0000E93F000000000000D23FF6
:105A000070B504462DED028B4D1E00EBC500B0EEC7
:105A1000408AF0EE608A90ED000B35F0060017D05A
:105A200053EC182B51EC100BFEF7CFFC41EC100B94
:105A30006D1E04EBC50090ED001B51EC100B53ECF8
:105A4000112BFEF71BFC41EC100B35F00600E7D1E3
:105A5000022D36D0042D1CD0062D1CBFBDEC028BB0
:105A600070BD53EC182B51EC100BFEF7AEFC94ED0F
:105A70000A1B53EC112BFEF701FC53EC182BFEF71D
:105A8000A4FC94ED081B53EC112BFEF7F7FB41EC43
:105A9000100B53EC182B51EC100BFEF796FC94ED09
:105AA000061B53EC112BFEF7E9FB53EC182BFEF70A
:105AB0008CFC94ED040B53EC102BFEF7DFFB41EC58
:105AC000100B53EC182B51EC100BFEF77EFC94EDF1
:105AD000021B53EC112BFEF7D1FB53EC182BFEF7F6
